:100000008A110A1208280000000000000000000009
:10001000283084005830A0008001840AA00B0C28EE
:10002000883095001330960000308E0000308F002D
:10003000013090000B30970007309F0000308500A2
:1000400083163C3085008312003086008316DF3033
:10005000860083120C1D2A280C116400A914A9180B
:100060002915A91C2911051936282911291D3C28F3
:100070000130AA000030AB00A9182915A91C2911CC
:10008000851943282911291D49280230AA0000306A
:10009000AB00A9182915A91C2911051A50282911E6
:1000A000291D56280330AA000030AB00A9182915D5
:1000B000A91C291106185D282911291D632804305F
:1000C000AA000030AB00A9182915A91C291186180F
:1000D0006A282911291D70280530AA000030AB00BC
:1000E000A9182915A91C2911291D8B280030AC003D
:1000F0000030AD002A08A0002B08A1002C08A200A7
:100100002D08A30003308A006C2300308A002208E7
:10011000AE002308AF00A9182915A91C2911291D13
:10012000A6280130AC000030AD002A08A0002B0842
:10013000A1002C08A2002D08A30003308A006C2324
:1001400000308A002208B0002308B100A918291540
:10015000A91C2911291DC1280230AC000030AD00B6
:100160002A08A0002B08A1002C08A2002D08A3003B
:1001700003308A006C2300308A002208B200230872
:10018000B300A9182915A91C2911291DDC28033041
:10019000AC000030AD002A08A0002B08A1002C08FC
:1001A000A2002D08A30003308A006C2300308A00CF
:1001B0002208B4002308B500A9182915A91C291183
:1001C000291DF7280430AC000030AD002A08A0003B
:1001D0002B08A1002C08A2002D08A30003308A00E0
:1001E0006C2300308A002208B6002308B700A91843
:1001F0002915A91C2911291D12290530AC00003030
:10020000AD002A08A0002B08A1002C08A2002D0890
:10021000A30003308A006C2301308A002208B80052
:100220002308B900A9182915A91C2911A91D1929E4
:100230002911291D302900303B0203192629A0006D
:1002400020093B05A006A01B2B292F2909303A02C3
:10025000031C2B292F29BA0F2E29BB0A2911342957
:100260000030BA000030BB002919A915291DA911B9
:10027000A9182915A91C2911A9193F292911291DD6
:100280004629291A4629BC0F4629BD0A29192916CB
:10029000291D291200303D0203195529A00020090B
:1002A0003D05A006A01B5A295C2900303C02031C16
:1002B0005A295C2929115D2929152919A916291DF1
:1002C000A912A9182915A91C29113D09A1002F055A
:1002D000A0002F08A104A1093D082F0203197929C4
:1002E000A105A200220920052104A206A21B7E2945
:1002F0007F293C082E02031C7E297F298029291191
:100300003D09A1003105A0003108A104A1093D0863
:10031000310203199429A105A20022092005210414
:10032000A206A21B99299A293C083002031C99298C
:100330009A292911051C9D292911851FA0292911F8
:10034000051FA329291129132919A917291DA91343
:10035000A91FAB298514A91FAE2929172919A91787
:10036000291DA913A91FB5298612A91FB829291764
:10037000291B2915291F2911A9182915A91C29117B
:100380003D09A1003105A0003108A104A1093D08E3
:1003900031020319D429A105A20022092005210454
:1003A000A206A21BD929DA293C083002031CD9294C
:1003B000DA29DB2929113D09A1003305A000330802
:1003C000A104A1093D0833020319EF29A105A200E8
:1003D000220920052104A206A21BF429F5293C08C4
:1003E0003202031CF429F5292911851FF829291146
:1003F000051FFB292911861EFE2929113E102919E6
:10040000BE14291DBE10BE1C062A0514BE1C092AD6
:100410003E142919BE14291DBE10BE1C102A8510B9
:10042000BE1C132A3E143E1829153E1C2911A9187A
:100430002915A91C29113D09A1003305A000330885
:10044000A104A1093D08330203192F2AA105A20026
:10045000220920052104A206A21B342A352A3C08C1
:100460003202031C342A352A362A29113D09A100FB
:100470003505A0003508A104A1093D08350203197E
:100480004A2AA105A200220920052104A206A21BD6
:100490004F2A502A3C083402031C4F2A502A2911A3
:1004A000051F532A2911861E562A2911851C592AEF
:1004B00029113E112919BE15291DBE11BE1D612A23
:1004C0008517BE1D642A3E152919BE15291DBE11AA
:1004D000BE1D6B2A0510BE1D6E2A3E153E1929153C
:1004E0003E1D2911A9182915A91C29113D09A10092
:1004F0003505A0003508A104A1093D0835020319FE
:100500008A2AA105A200220920052104A206A21B15
:100510008F2A902A3C083402031C8F2A902A912AA1
:1005200029113D09A1003705A0003708A104A10940
:100530003D0837020319A52AA105A20022092005BA
:100540002104A206A21BAA2AAB2A3C083602031CDD
:10055000AA2AAB2A2911861EAE2A2911851CB12A86
:100560002911051CB42A29113E122919BE16291D6C
:10057000BE12BE1EBC2A0517BE1EBF2A3E16291972
:10058000BE16291DBE12BE1EC62A8513BE1EC92A4E
:100590003E163E1A29153E1E2911A9182915A91C17
:1005A00029113D09A1003705A0003708A104A109C0
:1005B0003D0837020319E52AA105A20022092005FA
:1005C0002104A206A21BEA2AEB2A3C083602031CDD
:1005D000EA2AEB2AEC2A29113D09A1003905A000DD
:1005E0003908A104A1093D0839020319002BA1050E
:1005F000A200220920052104A206A21B052B062B1E
:100600003C083802031C052B062B2911851C092BDD
:100610002911051C0C2B2911851F0F2B29113E13A5
:100620002919BE17291DBE13BE1F172B8616BE1F04
:100630001A2B3E172919BE17291DBE13BE1F212BC9
:100640000513BE1F242B3E173E1B29153E1F2911E3
:10065000A9182915A91C29113F102919BF14291DF2
:10066000BF103D09A1003905A0003908A104A10966
:100670003D0839020319452BA105A20022092005D6
:100680002104A206A21B4A2B4B2B3C083802031C58
:100690004A2B4B2B4C2BBF10BF1C4F2B3F1429193F
:1006A000BF14291DBF103C083802031D5C2B3D08F8
:1006B0003902031D5C2B5D2BBF10BF1C602B3F1448
:1006C0003F1829153F1C2911291D6A2B0030BC0039
:1006D0000030BD008A012A28A501A4010310A30C43
:1006E000A20C1030A600031C7B2B2008A4070318C3
:1006F000A50A2108A5070310A50CA40CA30CA20CA5
:10070000A60B732B0800FF3FFF3FFF3FFF3FFF3F5C
:08400000FF3FFF3FFF3FFF3FC0
:02400E00183F59
:00000001FF